{
  "contractName": "SmartHealth",
  "abi": [
    {
      "inputs": [],
      "stateMutability": "nonpayable",
      "type": "constructor"
    },
    {
      "inputs": [],
      "name": "disease",
      "outputs": [
        {
          "internalType": "string",
          "name": "",
          "type": "string"
        }
      ],
      "stateMutability": "view",
      "type": "function",
      "constant": true
    },
    {
      "inputs": [],
      "name": "hospital_details",
      "outputs": [
        {
          "internalType": "string",
          "name": "",
          "type": "string"
        }
      ],
      "stateMutability": "view",
      "type": "function",
      "constant": true
    },
    {
      "inputs": [],
      "name": "patient_details",
      "outputs": [
        {
          "internalType": "string",
          "name": "",
          "type": "string"
        }
      ],
      "stateMutability": "view",
      "type": "function",
      "constant": true
    },
    {
      "inputs": [],
      "name": "prescription",
      "outputs": [
        {
          "internalType": "string",
          "name": "",
          "type": "string"
        }
      ],
      "stateMutability": "view",
      "type": "function",
      "constant": true
    },
    {
      "inputs": [
        {
          "internalType": "string",
          "name": "d",
          "type": "string"
        }
      ],
      "name": "setDisease",
      "outputs": [],
      "stateMutability": "nonpayable",
      "type": "function"
    },
    {
      "inputs": [],
      "name": "getDisease",
      "outputs": [
        {
          "internalType": "string",
          "name": "",
          "type": "string"
        }
      ],
      "stateMutability": "view",
      "type": "function",
      "constant": true
    },
    {
      "inputs": [
        {
          "internalType": "string",
          "name": "hd",
          "type": "string"
        }
      ],
      "name": "setHospital",
      "outputs": [],
      "stateMutability": "nonpayable",
      "type": "function"
    },
    {
      "inputs": [],
      "name": "getHospital",
      "outputs": [
        {
          "internalType": "string",
          "name": "",
          "type": "string"
        }
      ],
      "stateMutability": "view",
      "type": "function",
      "constant": true
    },
    {
      "inputs": [
        {
          "internalType": "string",
          "name": "pd",
          "type": "string"
        }
      ],
      "name": "setPatient",
      "outputs": [],
      "stateMutability": "nonpayable",
      "type": "function"
    },
    {
      "inputs": [],
      "name": "getPatient",
      "outputs": [
        {
          "internalType": "string",
          "name": "",
          "type": "string"
        }
      ],
      "stateMutability": "view",
      "type": "function",
      "constant": true
    },
    {
      "inputs": [
        {
          "internalType": "string",
          "name": "p",
          "type": "string"
        }
      ],
      "name": "setPrescription",
      "outputs": [],
      "stateMutability": "nonpayable",
      "type": "function"
    },
    {
      "inputs": [],
      "name": "getPrescription",
      "outputs": [
        {
          "internalType": "string",
          "name": "",
          "type": "string"
        }
      ],
      "stateMutability": "view",
      "type": "function",
      "constant": true
    }
  ],
  "bytecode": "0x60806040523480156200001157600080fd5b50604051806020016040528060008152506000908051906020019062000039929190620000b8565b50604051806020016040528060008152506002908051906020019062000061929190620000b8565b50604051806020016040528060008152506001908051906020019062000089929190620000b8565b506040518060200160405280600081525060039080519060200190620000b1929190620000b8565b50620001cd565b828054620000c69062000197565b90600052602060002090601f016020900481019282620000ea576000855562000136565b82601f106200010557805160ff191683800117855562000136565b8280016001018555821562000136579182015b828111156200013557825182559160200191906001019062000118565b5b50905062000145919062000149565b5090565b5b80821115620001645760008160009055506001016200014a565b5090565b7f4e487b7100000000000000000000000000000000000000000000000000000000600052602260045260246000fd5b60006002820490506001821680620001b057607f821691505b60208210811415620001c757620001c662000168565b5b50919050565b610a8880620001dd6000396000f3fe608060405234801561001057600080fd5b50600436106100b45760003560e01c80637c014f80116100715780637c014f801461016957806395b679911461018757806397be1882146101a3578063af151ccc146101c1578063fc3de41d146101df578063ff4faae4146101fb576100b4565b806318769d46146100b95780633680f6ee146100d7578063389b4fe3146100f35780634c3b90861461011157806351b5545b1461012f5780637b0f9a361461014b575b600080fd5b6100c1610219565b6040516100ce919061083d565b60405180910390f35b6100f160048036038101906100ec91906109a8565b6102ab565b005b6100fb6102c5565b604051610108919061083d565b60405180910390f35b610119610353565b604051610126919061083d565b60405180910390f35b610149600480360381019061014491906109a8565b6103e5565b005b6101536103ff565b604051610160919061083d565b60405180910390f35b610171610491565b60405161017e919061083d565b60405180910390f35b6101a1600480360381019061019c91906109a8565b61051f565b005b6101ab610539565b6040516101b8919061083d565b60405180910390f35b6101c96105c7565b6040516101d6919061083d565b60405180910390f35b6101f960048036038101906101f491906109a8565b610655565b005b61020361066f565b604051610210919061083d565b60405180910390f35b60606000805461022890610a20565b80601f016020809104026020016040519081016040528092919081815260200182805461025490610a20565b80156102a15780601f10610276576101008083540402835291602001916102a1565b820191906000526020600020905b81548152906001019060200180831161028457829003601f168201915b5050505050905090565b80600290805190602001906102c1929190610701565b5050565b600080546102d290610a20565b80601f01602080910402602001604051908101604052809291908181526020018280546102fe90610a20565b801561034b5780601f106103205761010080835404028352916020019161034b565b820191906000526020600020905b81548152906001019060200180831161032e57829003601f168201915b505050505081565b60606002805461036290610a20565b80601f016020809104026020016040519081016040528092919081815260200182805461038e90610a20565b80156103db5780601f106103b0576101008083540402835291602001916103db565b820191906000526020600020905b8154815290600101906020018083116103be57829003601f168201915b5050505050905090565b80600190805190602001906103fb929190610701565b5050565b60606001805461040e90610a20565b80601f016020809104026020016040519081016040528092919081815260200182805461043a90610a20565b80156104875780601f1061045c57610100808354040283529160200191610487565b820191906000526020600020905b81548152906001019060200180831161046a57829003601f168201915b5050505050905090565b6003805461049e90610a20565b80601f01602080910402602001604051908101604052809291908181526020018280546104ca90610a20565b80156105175780601f106104ec57610100808354040283529160200191610517565b820191906000526020600020905b8154815290600101906020018083116104fa57829003601f168201915b505050505081565b8060009080519060200190610535929190610701565b5050565b6001805461054690610a20565b80601f016020809104026020016040519081016040528092919081815260200182805461057290610a20565b80156105bf5780601f10610594576101008083540402835291602001916105bf565b820191906000526020600020905b8154815290600101906020018083116105a257829003601f168201915b505050505081565b600280546105d490610a20565b80601f016020809104026020016040519081016040528092919081815260200182805461060090610a20565b801561064d5780601f106106225761010080835404028352916020019161064d565b820191906000526020600020905b81548152906001019060200180831161063057829003601f168201915b505050505081565b806003908051906020019061066b929190610701565b5050565b60606003805461067e90610a20565b80601f01602080910402602001604051908101604052809291908181526020018280546106aa90610a20565b80156106f75780601f106106cc576101008083540402835291602001916106f7565b820191906000526020600020905b8154815290600101906020018083116106da57829003601f168201915b5050505050905090565b82805461070d90610a20565b90600052602060002090601f01602090048101928261072f5760008555610776565b82601f1061074857805160ff1916838001178555610776565b82800160010185558215610776579182015b8281111561077557825182559160200191906001019061075a565b5b5090506107839190610787565b5090565b5b808211156107a0576000816000905550600101610788565b5090565b600081519050919050565b600082825260208201905092915050565b60005b838110156107de5780820151818401526020810190506107c3565b838111156107ed576000848401525b50505050565b6000601f19601f8301169050919050565b600061080f826107a4565b61081981856107af565b93506108298185602086016107c0565b610832816107f3565b840191505092915050565b600060208201905081810360008301526108578184610804565b905092915050565b6000604051905090565b600080fd5b600080fd5b600080fd5b600080fd5b7f4e487b7100000000000000000000000000000000000000000000000000000000600052604160045260246000fd5b6108b5826107f3565b810181811067ffffffffffffffff821117156108d4576108d361087d565b5b80604052505050565b60006108e761085f565b90506108f382826108ac565b919050565b600067ffffffffffffffff8211156109135761091261087d565b5b61091c826107f3565b9050602081019050919050565b82818337600083830152505050565b600061094b610946846108f8565b6108dd565b90508281526020810184848401111561096757610966610878565b5b610972848285610929565b509392505050565b600082601f83011261098f5761098e610873565b5b813561099f848260208601610938565b91505092915050565b6000602082840312156109be576109bd610869565b5b600082013567ffffffffffffffff8111156109dc576109db61086e565b5b6109e88482850161097a565b91505092915050565b7f4e487b7100000000000000000000000000000000000000000000000000000000600052602260045260246000fd5b60006002820490506001821680610a3857607f821691505b60208210811415610a4c57610a4b6109f1565b5b5091905056fea2646970667358221220f4b20e24d1a43933fbb845b4743520b4e6aad861683d95dc7d26b80a5fc223c664736f6c634300080b0033",
  "immutableReferences": {},
  "source": "pragma solidity >= 0.8.11 <= 0.8.11;\r\n\r\ncontract SmartHealth {\r\n    string public hospital_details;\r\n    string public patient_details;\r\n    string public prescription;\r\n    string public disease;\r\n\r\n    //call this function to save disease data to Blockchain\r\n    function setDisease(string memory d) public {\r\n       disease = d;\t\r\n    }\r\n   //get disease details\r\n    function getDisease() public view returns (string memory) {\r\n        return disease;\r\n    }\r\n       \r\n    //call this function to save hospital data to Blockchain\r\n    function setHospital(string memory hd) public {\r\n       hospital_details = hd;\t\r\n    }\r\n   //get hospital details\r\n    function getHospital() public view returns (string memory) {\r\n        return hospital_details;\r\n    }\r\n\r\n    //call this function to save patient data to Blockchain\r\n    function setPatient(string memory pd) public {\r\n       patient_details = pd;\t\r\n    }\r\n   //get hospital details\r\n    function getPatient() public view returns (string memory) {\r\n        return patient_details;\r\n    }\r\n\r\n    //call this function to save prescription data to Blockchain\r\n    function setPrescription(string memory p) public {\r\n       prescription = p;\t\r\n    }\r\n   //get hospital details\r\n    function getPrescription() public view returns (string memory) {\r\n        return prescription;\r\n    }\r\n\r\n    constructor() public {\r\n        hospital_details=\"\";\r\n\tprescription = \"\";\r\n\tpatient_details=\"\";\r\n\tdisease = \"\";\r\n    }\r\n}",
  "sourcePath": "C:\\acc\\manoj\\November21\\hello-eth\\node_modules\\.bin\\contracts\\SmartHealth.sol",
  "compiler": {
    "name": "solc",
    "version": "0.8.11+commit.d7f03943.Emscripten.clang"
  },
  "schemaVersion": "3.4.4",
  "updatedAt": "2022-09-20T13:40:25.282Z",
  "networkType": "ethereum",
  "devdoc": {
    "kind": "dev",
    "methods": {},
    "version": 1
  },
  "userdoc": {
    "kind": "user",
    "methods": {},
    "version": 1
  }
}